{
  "address": "0xD2EFB5365fC28D97Effa4bd398f86B08f583154c",
  "abi": [
    {
      "inputs": [],
      "stateMutability": "nonpayable",
      "type": "constructor"
    },
    {
      "anonymous": false,
      "inputs": [
        {
          "indexed": true,
          "internalType": "address",
          "name": "owner",
          "type": "address"
        },
        {
          "indexed": true,
          "internalType": "address",
          "name": "approved",
          "type": "address"
        },
        {
          "indexed": true,
          "internalType": "uint256",
          "name": "tokenId",
          "type": "uint256"
        }
      ],
      "name": "Approval",
      "type": "event"
    },
    {
      "anonymous": false,
      "inputs": [
        {
          "indexed": true,
          "internalType": "address",
          "name": "owner",
          "type": "address"
        },
        {
          "indexed": true,
          "internalType": "address",
          "name": "operator",
          "type": "address"
        },
        {
          "indexed": false,
          "internalType": "bool",
          "name": "approved",
          "type": "bool"
        }
      ],
      "name": "ApprovalForAll",
      "type": "event"
    },
    {
      "anonymous": false,
      "inputs": [
        {
          "indexed": true,
          "internalType": "address",
          "name": "from",
          "type": "address"
        },
        {
          "indexed": true,
          "internalType": "address",
          "name": "to",
          "type": "address"
        },
        {
          "indexed": true,
          "internalType": "uint256",
          "name": "tokenId",
          "type": "uint256"
        }
      ],
      "name": "Transfer",
      "type": "event"
    },
    {
      "inputs": [
        {
          "internalType": "address",
          "name": "to",
          "type": "address"
        },
        {
          "internalType": "uint256",
          "name": "tokenId",
          "type": "uint256"
        }
      ],
      "name": "approve",
      "outputs": [],
      "stateMutability": "nonpayable",
      "type": "function"
    },
    {
      "inputs": [
        {
          "internalType": "address",
          "name": "owner",
          "type": "address"
        }
      ],
      "name": "balanceOf",
      "outputs": [
        {
          "internalType": "uint256",
          "name": "",
          "type": "uint256"
        }
      ],
      "stateMutability": "view",
      "type": "function"
    },
    {
      "inputs": [
        {
          "internalType": "uint256",
          "name": "tokenId",
          "type": "uint256"
        }
      ],
      "name": "getApproved",
      "outputs": [
        {
          "internalType": "address",
          "name": "",
          "type": "address"
        }
      ],
      "stateMutability": "view",
      "type": "function"
    },
    {
      "inputs": [
        {
          "internalType": "address",
          "name": "owner",
          "type": "address"
        },
        {
          "internalType": "address",
          "name": "operator",
          "type": "address"
        }
      ],
      "name": "isApprovedForAll",
      "outputs": [
        {
          "internalType": "bool",
          "name": "",
          "type": "bool"
        }
      ],
      "stateMutability": "view",
      "type": "function"
    },
    {
      "inputs": [
        {
          "internalType": "address",
          "name": "recipient",
          "type": "address"
        },
        {
          "internalType": "string",
          "name": "tokenURI",
          "type": "string"
        }
      ],
      "name": "mintNFT",
      "outputs": [
        {
          "internalType": "uint256",
          "name": "",
          "type": "uint256"
        }
      ],
      "stateMutability": "nonpayable",
      "type": "function"
    },
    {
      "inputs": [],
      "name": "name",
      "outputs": [
        {
          "internalType": "string",
          "name": "",
          "type": "string"
        }
      ],
      "stateMutability": "view",
      "type": "function"
    },
    {
      "inputs": [
        {
          "internalType": "uint256",
          "name": "tokenId",
          "type": "uint256"
        }
      ],
      "name": "ownerOf",
      "outputs": [
        {
          "internalType": "address",
          "name": "",
          "type": "address"
        }
      ],
      "stateMutability": "view",
      "type": "function"
    },
    {
      "inputs": [
        {
          "internalType": "address",
          "name": "from",
          "type": "address"
        },
        {
          "internalType": "address",
          "name": "to",
          "type": "address"
        },
        {
          "internalType": "uint256",
          "name": "tokenId",
          "type": "uint256"
        }
      ],
      "name": "safeTransferFrom",
      "outputs": [],
      "stateMutability": "nonpayable",
      "type": "function"
    },
    {
      "inputs": [
        {
          "internalType": "address",
          "name": "from",
          "type": "address"
        },
        {
          "internalType": "address",
          "name": "to",
          "type": "address"
        },
        {
          "internalType": "uint256",
          "name": "tokenId",
          "type": "uint256"
        },
        {
          "internalType": "bytes",
          "name": "data",
          "type": "bytes"
        }
      ],
      "name": "safeTransferFrom",
      "outputs": [],
      "stateMutability": "nonpayable",
      "type": "function"
    },
    {
      "inputs": [
        {
          "internalType": "address",
          "name": "operator",
          "type": "address"
        },
        {
          "internalType": "bool",
          "name": "approved",
          "type": "bool"
        }
      ],
      "name": "setApprovalForAll",
      "outputs": [],
      "stateMutability": "nonpayable",
      "type": "function"
    },
    {
      "inputs": [
        {
          "internalType": "bytes4",
          "name": "interfaceId",
          "type": "bytes4"
        }
      ],
      "name": "supportsInterface",
      "outputs": [
        {
          "internalType": "bool",
          "name": "",
          "type": "bool"
        }
      ],
      "stateMutability": "view",
      "type": "function"
    },
    {
      "inputs": [],
      "name": "symbol",
      "outputs": [
        {
          "internalType": "string",
          "name": "",
          "type": "string"
        }
      ],
      "stateMutability": "view",
      "type": "function"
    },
    {
      "inputs": [
        {
          "internalType": "uint256",
          "name": "tokenId",
          "type": "uint256"
        }
      ],
      "name": "tokenURI",
      "outputs": [
        {
          "internalType": "string",
          "name": "",
          "type": "string"
        }
      ],
      "stateMutability": "view",
      "type": "function"
    },
    {
      "inputs": [
        {
          "internalType": "address",
          "name": "from",
          "type": "address"
        },
        {
          "internalType": "address",
          "name": "to",
          "type": "address"
        },
        {
          "internalType": "uint256",
          "name": "tokenId",
          "type": "uint256"
        }
      ],
      "name": "transferFrom",
      "outputs": [],
      "stateMutability": "nonpayable",
      "type": "function"
    }
  ],
  "transactionHash": "0x2fbade75e83c707201bf4994b14d2c62cde30d4e8d42eb9770256c15c6883293",
  "args": [],
  "numDeployments": 1,
  "solcInputHash": "0ec04534a4951a36c0f129578e582015",
  "bytecode": "0x60806040523480156200001157600080fd5b506040518060400160405280600981526020017f546573742044656d6f00000000000000000000000000000000000000000000008152506040518060400160405280600481526020017f544e46540000000000000000000000000000000000000000000000000000000081525081600090816200008f919062000324565b508060019081620000a1919062000324565b5050506200040b565b600081519050919050565b7f4e487b7100000000000000000000000000000000000000000000000000000000600052604160045260246000fd5b7f4e487b7100000000000000000000000000000000000000000000000000000000600052602260045260246000fd5b600060028204905060018216806200012c57607f821691505b602082108103620001425762000141620000e4565b5b50919050565b60008190508160005260206000209050919050565b60006020601f8301049050919050565b600082821b905092915050565b600060088302620001ac7fffffffffffffffffffffffffffffffffffffffffffffffffffffffffffffffff826200016d565b620001b886836200016d565b95508019841693508086168417925050509392505050565b6000819050919050565b6000819050919050565b600062000205620001ff620001f984620001d0565b620001da565b620001d0565b9050919050565b6000819050919050565b6200022183620001e4565b6200023962000230826200020c565b8484546200017a565b825550505050565b600090565b6200025062000241565b6200025d81848462000216565b505050565b5b8181101562000285576200027960008262000246565b60018101905062000263565b5050565b601f821115620002d4576200029e8162000148565b620002a9846200015d565b81016020851015620002b9578190505b620002d1620002c8856200015d565b83018262000262565b50505b505050565b600082821c905092915050565b6000620002f960001984600802620002d9565b1980831691505092915050565b6000620003148383620002e6565b9150826002028217905092915050565b6200032f82620000aa565b67ffffffffffffffff8111156200034b576200034a620000b5565b5b62000357825462000113565b6200036482828562000289565b600060209050601f8311600181146200039c576000841562000387578287015190505b62000393858262000306565b86555062000403565b601f198416620003ac8662000148565b60005b82811015620003d657848901518255600182019150602085019450602081019050620003af565b86831015620003f65784890151620003f2601f891682620002e6565b8355505b6001600288020188555050505b505050505050565b612bff806200041b6000396000f3fe608060405234801561001057600080fd5b50600436106100ea5760003560e01c806370a082311161008c578063b88d4fde11610066578063b88d4fde1461025b578063c87b56dd14610277578063e985e9c5146102a7578063eacabe14146102d7576100ea565b806370a08231146101f157806395d89b4114610221578063a22cb4651461023f576100ea565b8063095ea7b3116100c8578063095ea7b31461016d57806323b872dd1461018957806342842e0e146101a55780636352211e146101c1576100ea565b806301ffc9a7146100ef57806306fdde031461011f578063081812fc1461013d575b600080fd5b61010960048036038101906101049190611a57565b610307565b6040516101169190611a9f565b60405180910390f35b6101276103e9565b6040516101349190611b4a565b60405180910390f35b61015760048036038101906101529190611ba2565b61047b565b6040516101649190611c10565b60405180910390f35b61018760048036038101906101829190611c57565b6104c1565b005b6101a3600480360381019061019e9190611c97565b6105d8565b005b6101bf60048036038101906101ba9190611c97565b610638565b005b6101db60048036038101906101d69190611ba2565b610658565b6040516101e89190611c10565b60405180910390f35b61020b60048036038101906102069190611cea565b6106de565b6040516102189190611d26565b60405180910390f35b610229610795565b6040516102369190611b4a565b60405180910390f35b61025960048036038101906102549190611d6d565b610827565b005b61027560048036038101906102709190611ee2565b61083d565b005b610291600480360381019061028c9190611ba2565b61089f565b60405161029e9190611b4a565b60405180910390f35b6102c160048036038101906102bc9190611f65565b6109b1565b6040516102ce9190611a9f565b60405180910390f35b6102f160048036038101906102ec9190612046565b610a45565b6040516102fe9190611d26565b60405180910390f35b60007f80ac58cd000000000000000000000000000000000000000000000000000000007bffffffffffffffffffffffffffffffffffffffffffffffffffffffff1916827bffffffffffffffffffffffffffffffffffffffffffffffffffffffff191614806103d257507f5b5e139f000000000000000000000000000000000000000000000000000000007bffffffffffffffffffffffffffffffffffffffffffffffffffffffff1916827bffffffffffffffffffffffffffffffffffffffffffffffffffffffff1916145b806103e257506103e182610a7d565b5b9050919050565b6060600080546103f8906120d1565b80601f0160208091040260200160405190810160405280929190818152602001828054610424906120d1565b80156104715780601f1061044657610100808354040283529160200191610471565b820191906000526020600020905b81548152906001019060200180831161045457829003601f168201915b5050505050905090565b600061048682610ae7565b6004600083815260200190815260200160002060009054906101000a900473ffffffffffffffffffffffffffffffffffffffff169050919050565b60006104cc82610658565b90508073ffffffffffffffffffffffffffffffffffffffff168373ffffffffffffffffffffffffffffffffffffffff160361053c576040517f08c379a000000000000000000000000000000000000000000000000000000000815260040161053390612174565b60405180910390fd5b8073ffffffffffffffffffffffffffffffffffffffff1661055b610b32565b73ffffffffffffffffffffffffffffffffffffffff16148061058a575061058981610584610b32565b6109b1565b5b6105c9576040517f08c379a00000000000000000000000000000000000000000000000000000000081526004016105c090612206565b60405180910390fd5b6105d38383610b3a565b505050565b6105e96105e3610b32565b82610bf3565b610628576040517f08c379a000000000000000000000000000000000000000000000000000000000815260040161061f90612298565b60405180910390fd5b610633838383610c88565b505050565b6106538383836040518060200160405280600081525061083d565b505050565b60008061066483610f81565b9050600073ffffffffffffffffffffffffffffffffffffffff168173ffffffffffffffffffffffffffffffffffffffff16036106d5576040517f08c379a00000000000000000000000000000000000000000000000000000000081526004016106cc90612304565b60405180910390fd5b80915050919050565b60008073ffffffffffffffffffffffffffffffffffffffff168273ffffffffffffffffffffffffffffffffffffffff160361074e576040517f08c379a000000000000000000000000000000000000000000000000000000000815260040161074590612396565b60405180910390fd5b600360008373ffffffffffffffffffffffffffffffffffffffff1673ffffffffffffffffffffffffffffffffffffffff168152602001908152602001600020549050919050565b6060600180546107a4906120d1565b80601f01602080910402602001604051908101604052809291908181526020018280546107d0906120d1565b801561081d5780601f106107f25761010080835404028352916020019161081d565b820191906000526020600020905b81548152906001019060200180831161080057829003601f168201915b5050505050905090565b610839610832610b32565b8383610fbe565b5050565b61084e610848610b32565b83610bf3565b61088d576040517f08c379a000000000000000000000000000000000000000000000000000000000815260040161088490612298565b60405180910390fd5b6108998484848461112a565b50505050565b60606108aa82610ae7565b60006006600084815260200190815260200160002080546108ca906120d1565b80601f01602080910402602001604051908101604052809291908181526020018280546108f6906120d1565b80156109435780601f1061091857610100808354040283529160200191610943565b820191906000526020600020905b81548152906001019060200180831161092657829003601f168201915b505050505090506000610954611186565b905060008151036109695781925050506109ac565b60008251111561099e5780826040516020016109869291906123f2565b604051602081830303815290604052925050506109ac565b6109a78461119d565b925050505b919050565b6000600560008473ffffffffffffffffffffffffffffffffffffffff1673ffffffffffffffffffffffffffffffffffffffff16815260200190815260200160002060008373ffffffffffffffffffffffffffffffffffffffff1673ffffffffffffffffffffffffffffffffffffffff16815260200190815260200160002060009054906101000a900460ff16905092915050565b6000610a516007611205565b6000610a5d600761121b565b9050610a698482611229565b610a738184611446565b8091505092915050565b60007f01ffc9a7000000000000000000000000000000000000000000000000000000007bffffffffffffffffffffffffffffffffffffffffffffffffffffffff1916827bffffffffffffffffffffffffffffffffffffffffffffffffffffffff1916149050919050565b610af0816114b3565b610b2f576040517f08c379a0000000000000000000000000000000000000000000000000000000008152600401610b2690612304565b60405180910390fd5b50565b600033905090565b816004600083815260200190815260200160002060006101000a81548173ffffffffffffffffffffffffffffffffffffffff021916908373ffffffffffffffffffffffffffffffffffffffff160217905550808273ffffffffffffffffffffffffffffffffffffffff16610bad83610658565b73ffffffffffffffffffffffffffffffffffffffff167f8c5be1e5ebec7d5bd14f71427d1e84f3dd0314c0f7b2291e5b200ac8c7c3b92560405160405180910390a45050565b600080610bff83610658565b90508073ffffffffffffffffffffffffffffffffffffffff168473ffffffffffffffffffffffffffffffffffffffff161480610c415750610c4081856109b1565b5b80610c7f57508373ffffffffffffffffffffffffffffffffffffffff16610c678461047b565b73ffffffffffffffffffffffffffffffffffffffff16145b91505092915050565b8273ffffffffffffffffffffffffffffffffffffffff16610ca882610658565b73ffffffffffffffffffffffffffffffffffffffff1614610cfe576040517f08c379a0000000000000000000000000000000000000000000000000000000008152600401610cf590612488565b60405180910390fd5b600073ffffffffffffffffffffffffffffffffffffffff168273ffffffffffffffffffffffffffffffffffffffff1603610d6d576040517f08c379a0000000000000000000000000000000000000000000000000000000008152600401610d649061251a565b60405180910390fd5b610d7a83838360016114f4565b8273ffffffffffffffffffffffffffffffffffffffff16610d9a82610658565b73ffffffffffffffffffffffffffffffffffffffff1614610df0576040517f08c379a0000000000000000000000000000000000000000000000000000000008152600401610de790612488565b60405180910390fd5b6004600082815260200190815260200160002060006101000a81549073ffffffffffffffffffffffffffffffffffffffff02191690556001600360008573ffffffffffffffffffffffffffffffffffffffff1673ffffffffffffffffffffffffffffffffffffffff168152602001908152602001600020600082825403925050819055506001600360008473ffffffffffffffffffffffffffffffffffffffff1673ffffffffffffffffffffffffffffffffffffffff16815260200190815260200160002060008282540192505081905550816002600083815260200190815260200160002060006101000a81548173ffffffffffffffffffffffffffffffffffffffff021916908373ffffffffffffffffffffffffffffffffffffffff160217905550808273ffffffffffffffffffffffffffffffffffffffff168473ffffffffffffffffffffffffffffffffffffffff167fddf252ad1be2c89b69c2b068fc378daa952ba7f163c4a11628f55a4df523b3ef60405160405180910390a4610f7c838383600161161a565b505050565b60006002600083815260200190815260200160002060009054906101000a900473ffffffffffffffffffffffffffffffffffffffff169050919050565b8173ffffffffffffffffffffffffffffffffffffffff168373ffffffffffffffffffffffffffffffffffffffff160361102c576040517f08c379a000000000000000000000000000000000000000000000000000000000815260040161102390612586565b60405180910390fd5b80600560008573ffffffffffffffffffffffffffffffffffffffff1673ffffffffffffffffffffffffffffffffffffffff16815260200190815260200160002060008473ffffffffffffffffffffffffffffffffffffffff1673ffffffffffffffffffffffffffffffffffffffff16815260200190815260200160002060006101000a81548160ff0219169083151502179055508173ffffffffffffffffffffffffffffffffffffffff168373ffffffffffffffffffffffffffffffffffffffff167f17307eab39ab6107e8899845ad3d59bd9653f200f220920489ca2b5937696c318360405161111d9190611a9f565b60405180910390a3505050565b611135848484610c88565b61114184848484611620565b611180576040517f08c379a000000000000000000000000000000000000000000000000000000000815260040161117790612618565b60405180910390fd5b50505050565b606060405180602001604052806000815250905090565b60606111a882610ae7565b60006111b2611186565b905060008151116111d257604051806020016040528060008152506111fd565b806111dc846117a7565b6040516020016111ed9291906123f2565b6040516020818303038152906040525b915050919050565b6001816000016000828254019250508190555050565b600081600001549050919050565b600073ffffffffffffffffffffffffffffffffffffffff168273ffffffffffffffffffffffffffffffffffffffff1603611298576040517f08c379a000000000000000000000000000000000000000000000000000000000815260040161128f90612684565b60405180910390fd5b6112a1816114b3565b156112e1576040517f08c379a00000000000000000000000000000000000000000000000000000000081526004016112d8906126f0565b60405180910390fd5b6112ef6000838360016114f4565b6112f8816114b3565b15611338576040517f08c379a000000000000000000000000000000000000000000000000000000000815260040161132f906126f0565b60405180910390fd5b6001600360008473ffffffffffffffffffffffffffffffffffffffff1673ffffffffffffffffffffffffffffffffffffffff16815260200190815260200160002060008282540192505081905550816002600083815260200190815260200160002060006101000a81548173ffffffffffffffffffffffffffffffffffffffff021916908373ffffffffffffffffffffffffffffffffffffffff160217905550808273ffffffffffffffffffffffffffffffffffffffff16600073ffffffffffffffffffffffffffffffffffffffff167fddf252ad1be2c89b69c2b068fc378daa952ba7f163c4a11628f55a4df523b3ef60405160405180910390a461144260008383600161161a565b5050565b61144f826114b3565b61148e576040517f08c379a000000000000000000000000000000000000000000000000000000000815260040161148590612782565b60405180910390fd5b806006600084815260200190815260200160002090816114ae919061294e565b505050565b60008073ffffffffffffffffffffffffffffffffffffffff166114d583610f81565b73ffffffffffffffffffffffffffffffffffffffff1614159050919050565b600181111561161457600073ffffffffffffffffffffffffffffffffffffffff168473ffffffffffffffffffffffffffffffffffffffff16146115885780600360008673ffffffffffffffffffffffffffffffffffffffff1673ffffffffffffffffffffffffffffffffffffffff16815260200190815260200160002060008282546115809190612a4f565b925050819055505b600073ffffffffffffffffffffffffffffffffffffffff168373ffffffffffffffffffffffffffffffffffffffff16146116135780600360008573ffffffffffffffffffffffffffffffffffffffff1673ffffffffffffffffffffffffffffffffffffffff168152602001908152602001600020600082825461160b9190612a83565b925050819055505b5b50505050565b50505050565b60006116418473ffffffffffffffffffffffffffffffffffffffff16611875565b1561179a578373ffffffffffffffffffffffffffffffffffffffff1663150b7a0261166a610b32565b8786866040518563ffffffff1660e01b815260040161168c9493929190612b0c565b6020604051808303816000875af19250505080156116c857506040513d601f19601f820116820180604052508101906116c59190612b6d565b60015b61174a573d80600081146116f8576040519150601f19603f3d011682016040523d82523d6000602084013e6116fd565b606091505b506000815103611742576040517f08c379a000000000000000000000000000000000000000000000000000000000815260040161173990612618565b60405180910390fd5b805181602001fd5b63150b7a0260e01b7bffffffffffffffffffffffffffffffffffffffffffffffffffffffff1916817bffffffffffffffffffffffffffffffffffffffffffffffffffffffff19161491505061179f565b600190505b949350505050565b6060600060016117b684611898565b01905060008167ffffffffffffffff8111156117d5576117d4611db7565b5b6040519080825280601f01601f1916602001820160405280156118075781602001600182028036833780820191505090505b509050600082602001820190505b60011561186a578080600190039150507f3031323334353637383961626364656600000000000000000000000000000000600a86061a8153600a858161185e5761185d612b9a565b5b04945060008503611815575b819350505050919050565b6000808273ffffffffffffffffffffffffffffffffffffffff163b119050919050565b600080600090507a184f03e93ff9f4daa797ed6e38ed64bf6a1f01000000000000000083106118f6577a184f03e93ff9f4daa797ed6e38ed64bf6a1f01000000000000000083816118ec576118eb612b9a565b5b0492506040810190505b6d04ee2d6d415b85acef81000000008310611933576d04ee2d6d415b85acef8100000000838161192957611928612b9a565b5b0492506020810190505b662386f26fc10000831061196257662386f26fc10000838161195857611957612b9a565b5b0492506010810190505b6305f5e100831061198b576305f5e100838161198157611980612b9a565b5b0492506008810190505b61271083106119b05761271083816119a6576119a5612b9a565b5b0492506004810190505b606483106119d357606483816119c9576119c8612b9a565b5b0492506002810190505b600a83106119e2576001810190505b80915050919050565b6000604051905090565b600080fd5b600080fd5b60007fffffffff0000000000000000000000000000000000000000000000000000000082169050919050565b611a34816119ff565b8114611a3f57600080fd5b50565b600081359050611a5181611a2b565b92915050565b600060208284031215611a6d57611a6c6119f5565b5b6000611a7b84828501611a42565b91505092915050565b60008115159050919050565b611a9981611a84565b82525050565b6000602082019050611ab46000830184611a90565b92915050565b600081519050919050565b600082825260208201905092915050565b60005b83811015611af4578082015181840152602081019050611ad9565b60008484015250505050565b6000601f19601f8301169050919050565b6000611b1c82611aba565b611b268185611ac5565b9350611b36818560208601611ad6565b611b3f81611b00565b840191505092915050565b60006020820190508181036000830152611b648184611b11565b905092915050565b6000819050919050565b611b7f81611b6c565b8114611b8a57600080fd5b50565b600081359050611b9c81611b76565b92915050565b600060208284031215611bb857611bb76119f5565b5b6000611bc684828501611b8d565b91505092915050565b600073ffffffffffffffffffffffffffffffffffffffff82169050919050565b6000611bfa82611bcf565b9050919050565b611c0a81611bef565b82525050565b6000602082019050611c256000830184611c01565b92915050565b611c3481611bef565b8114611c3f57600080fd5b50565b600081359050611c5181611c2b565b92915050565b60008060408385031215611c6e57611c6d6119f5565b5b6000611c7c85828601611c42565b9250506020611c8d85828601611b8d565b9150509250929050565b600080600060608486031215611cb057611caf6119f5565b5b6000611cbe86828701611c42565b9350506020611ccf86828701611c42565b9250506040611ce086828701611b8d565b9150509250925092565b600060208284031215611d0057611cff6119f5565b5b6000611d0e84828501611c42565b91505092915050565b611d2081611b6c565b82525050565b6000602082019050611d3b6000830184611d17565b92915050565b611d4a81611a84565b8114611d5557600080fd5b50565b600081359050611d6781611d41565b92915050565b60008060408385031215611d8457611d836119f5565b5b6000611d9285828601611c42565b9250506020611da385828601611d58565b9150509250929050565b600080fd5b600080fd5b7f4e487b7100000000000000000000000000000000000000000000000000000000600052604160045260246000fd5b611def82611b00565b810181811067ffffffffffffffff82111715611e0e57611e0d611db7565b5b80604052505050565b6000611e216119eb565b9050611e2d8282611de6565b919050565b600067ffffffffffffffff821115611e4d57611e4c611db7565b5b611e5682611b00565b9050602081019050919050565b82818337600083830152505050565b6000611e85611e8084611e32565b611e17565b905082815260208101848484011115611ea157611ea0611db2565b5b611eac848285611e63565b509392505050565b600082601f830112611ec957611ec8611dad565b5b8135611ed9848260208601611e72565b91505092915050565b60008060008060808587031215611efc57611efb6119f5565b5b6000611f0a87828801611c42565b9450506020611f1b87828801611c42565b9350506040611f2c87828801611b8d565b925050606085013567ffffffffffffffff811115611f4d57611f4c6119fa565b5b611f5987828801611eb4565b91505092959194509250565b60008060408385031215611f7c57611f7b6119f5565b5b6000611f8a85828601611c42565b9250506020611f9b85828601611c42565b9150509250929050565b600067ffffffffffffffff821115611fc057611fbf611db7565b5b611fc982611b00565b9050602081019050919050565b6000611fe9611fe484611fa5565b611e17565b90508281526020810184848401111561200557612004611db2565b5b612010848285611e63565b509392505050565b600082601f83011261202d5761202c611dad565b5b813561203d848260208601611fd6565b91505092915050565b6000806040838503121561205d5761205c6119f5565b5b600061206b85828601611c42565b925050602083013567ffffffffffffffff81111561208c5761208b6119fa565b5b61209885828601612018565b9150509250929050565b7f4e487b7100000000000000000000000000000000000000000000000000000000600052602260045260246000fd5b600060028204905060018216806120e957607f821691505b6020821081036120fc576120fb6120a2565b5b50919050565b7f4552433732313a20617070726f76616c20746f2063757272656e74206f776e6560008201527f7200000000000000000000000000000000000000000000000000000000000000602082015250565b600061215e602183611ac5565b915061216982612102565b604082019050919050565b6000602082019050818103600083015261218d81612151565b9050919050565b7f4552433732313a20617070726f76652063616c6c6572206973206e6f7420746f60008201527f6b656e206f776e6572206f7220617070726f76656420666f7220616c6c000000602082015250565b60006121f0603d83611ac5565b91506121fb82612194565b604082019050919050565b6000602082019050818103600083015261221f816121e3565b9050919050565b7f4552433732313a2063616c6c6572206973206e6f7420746f6b656e206f776e6560008201527f72206f7220617070726f76656400000000000000000000000000000000000000602082015250565b6000612282602d83611ac5565b915061228d82612226565b604082019050919050565b600060208201905081810360008301526122b181612275565b9050919050565b7f4552433732313a20696e76616c696420746f6b656e2049440000000000000000600082015250565b60006122ee601883611ac5565b91506122f9826122b8565b602082019050919050565b6000602082019050818103600083015261231d816122e1565b9050919050565b7f4552433732313a2061646472657373207a65726f206973206e6f74206120766160008201527f6c6964206f776e65720000000000000000000000000000000000000000000000602082015250565b6000612380602983611ac5565b915061238b82612324565b604082019050919050565b600060208201905081810360008301526123af81612373565b9050919050565b600081905092915050565b60006123cc82611aba565b6123d681856123b6565b93506123e6818560208601611ad6565b80840191505092915050565b60006123fe82856123c1565b915061240a82846123c1565b91508190509392505050565b7f4552433732313a207472616e736665722066726f6d20696e636f72726563742060008201527f6f776e6572000000000000000000000000000000000000000000000000000000602082015250565b6000612472602583611ac5565b915061247d82612416565b604082019050919050565b600060208201905081810360008301526124a181612465565b9050919050565b7f4552433732313a207472616e7366657220746f20746865207a65726f2061646460008201527f7265737300000000000000000000000000000000000000000000000000000000602082015250565b6000612504602483611ac5565b915061250f826124a8565b604082019050919050565b60006020820190508181036000830152612533816124f7565b9050919050565b7f4552433732313a20617070726f766520746f2063616c6c657200000000000000600082015250565b6000612570601983611ac5565b915061257b8261253a565b602082019050919050565b6000602082019050818103600083015261259f81612563565b9050919050565b7f4552433732313a207472616e7366657220746f206e6f6e20455243373231526560008201527f63656976657220696d706c656d656e7465720000000000000000000000000000602082015250565b6000612602603283611ac5565b915061260d826125a6565b604082019050919050565b60006020820190508181036000830152612631816125f5565b9050919050565b7f4552433732313a206d696e7420746f20746865207a65726f2061646472657373600082015250565b600061266e602083611ac5565b915061267982612638565b602082019050919050565b6000602082019050818103600083015261269d81612661565b9050919050565b7f4552433732313a20746f6b656e20616c7265616479206d696e74656400000000600082015250565b60006126da601c83611ac5565b91506126e5826126a4565b602082019050919050565b60006020820190508181036000830152612709816126cd565b9050919050565b7f45524337323155524953746f726167653a2055524920736574206f66206e6f6e60008201527f6578697374656e7420746f6b656e000000000000000000000000000000000000602082015250565b600061276c602e83611ac5565b915061277782612710565b604082019050919050565b6000602082019050818103600083015261279b8161275f565b9050919050565b60008190508160005260206000209050919050565b60006020601f8301049050919050565b600082821b905092915050565b6000600883026128047fffffffffffffffffffffffffffffffffffffffffffffffffffffffffffffffff826127c7565b61280e86836127c7565b95508019841693508086168417925050509392505050565b6000819050919050565b600061284b61284661284184611b6c565b612826565b611b6c565b9050919050565b6000819050919050565b61286583612830565b61287961287182612852565b8484546127d4565b825550505050565b600090565b61288e612881565b61289981848461285c565b505050565b5b818110156128bd576128b2600082612886565b60018101905061289f565b5050565b601f821115612902576128d3816127a2565b6128dc846127b7565b810160208510156128eb578190505b6128ff6128f7856127b7565b83018261289e565b50505b505050565b600082821c905092915050565b600061292560001984600802612907565b1980831691505092915050565b600061293e8383612914565b9150826002028217905092915050565b61295782611aba565b67ffffffffffffffff8111156129705761296f611db7565b5b61297a82546120d1565b6129858282856128c1565b600060209050601f8311600181146129b857600084156129a6578287015190505b6129b08582612932565b865550612a18565b601f1984166129c6866127a2565b60005b828110156129ee578489015182556001820191506020850194506020810190506129c9565b86831015612a0b5784890151612a07601f891682612914565b8355505b6001600288020188555050505b505050505050565b7f4e487b7100000000000000000000000000000000000000000000000000000000600052601160045260246000fd5b6000612a5a82611b6c565b9150612a6583611b6c565b9250828203905081811115612a7d57612a7c612a20565b5b92915050565b6000612a8e82611b6c565b9150612a9983611b6c565b9250828201905080821115612ab157612ab0612a20565b5b92915050565b600081519050919050565b600082825260208201905092915050565b6000612ade82612ab7565b612ae88185612ac2565b9350612af8818560208601611ad6565b612b0181611b00565b840191505092915050565b6000608082019050612b216000830187611c01565b612b2e6020830186611c01565b612b3b6040830185611d17565b8181036060830152612b4d8184612ad3565b905095945050505050565b600081519050612b6781611a2b565b92915050565b600060208284031215612b8357612b826119f5565b5b6000612b9184828501612b58565b91505092915050565b7f4e487b7100000000000000000000000000000000000000000000000000000000600052601260045260246000fdfea26469706673582212205c4616b14e7cdf436f61dd16cb0c71c7c62e18d2bbcd9fd17d9494e44a57631364736f6c63430008110033",
  "devdoc": {
    "kind": "dev",
    "methods": {
      "approve(address,uint256)": {
        "details": "See {IERC721-approve}."
      },
      "balanceOf(address)": {
        "details": "See {IERC721-balanceOf}."
      },
      "getApproved(uint256)": {
        "details": "See {IERC721-getApproved}."
      },
      "isApprovedForAll(address,address)": {
        "details": "See {IERC721-isApprovedForAll}."
      },
      "name()": {
        "details": "See {IERC721Metadata-name}."
      },
      "ownerOf(uint256)": {
        "details": "See {IERC721-ownerOf}."
      },
      "safeTransferFrom(address,address,uint256)": {
        "details": "See {IERC721-safeTransferFrom}."
      },
      "safeTransferFrom(address,address,uint256,bytes)": {
        "details": "See {IERC721-safeTransferFrom}."
      },
      "setApprovalForAll(address,bool)": {
        "details": "See {IERC721-setApprovalForAll}."
      },
      "supportsInterface(bytes4)": {
        "details": "See {IERC165-supportsInterface}."
      },
      "symbol()": {
        "details": "See {IERC721Metadata-symbol}."
      },
      "tokenURI(uint256)": {
        "details": "See {IERC721Metadata-tokenURI}."
      },
      "transferFrom(address,address,uint256)": {
        "details": "See {IERC721-transferFrom}."
      }
    },
    "version": 1
  },
  "userdoc": {
    "kind": "user",
    "methods": {},
    "version": 1
  },
  "storageLayout": {
    "storage": [
      {
        "astId": 715,
        "contract": "contracts/HarvadAcedmics.sol:HarvadAcedmics",
        "label": "_name",
        "offset": 0,
        "slot": "0",
        "type": "t_string_storage"
      },
      {
        "astId": 717,
        "contract": "contracts/HarvadAcedmics.sol:HarvadAcedmics",
        "label": "_symbol",
        "offset": 0,
        "slot": "1",
        "type": "t_string_storage"
      },
      {
        "astId": 721,
        "contract": "contracts/HarvadAcedmics.sol:HarvadAcedmics",
        "label": "_owners",
        "offset": 0,
        "slot": "2",
        "type": "t_mapping(t_uint256,t_address)"
      },
      {
        "astId": 725,
        "contract": "contracts/HarvadAcedmics.sol:HarvadAcedmics",
        "label": "_balances",
        "offset": 0,
        "slot": "3",
        "type": "t_mapping(t_address,t_uint256)"
      },
      {
        "astId": 729,
        "contract": "contracts/HarvadAcedmics.sol:HarvadAcedmics",
        "label": "_tokenApprovals",
        "offset": 0,
        "slot": "4",
        "type": "t_mapping(t_uint256,t_address)"
      },
      {
        "astId": 735,
        "contract": "contracts/HarvadAcedmics.sol:HarvadAcedmics",
        "label": "_operatorApprovals",
        "offset": 0,
        "slot": "5",
        "type": "t_mapping(t_address,t_mapping(t_address,t_bool))"
      },
      {
        "astId": 1781,
        "contract": "contracts/HarvadAcedmics.sol:HarvadAcedmics",
        "label": "_tokenURIs",
        "offset": 0,
        "slot": "6",
        "type": "t_mapping(t_uint256,t_string_storage)"
      },
      {
        "astId": 3436,
        "contract": "contracts/HarvadAcedmics.sol:HarvadAcedmics",
        "label": "_tokenIds",
        "offset": 0,
        "slot": "7",
        "type": "t_struct(Counter)2278_storage"
      }
    ],
    "types": {
      "t_address": {
        "encoding": "inplace",
        "label": "address",
        "numberOfBytes": "20"
      },
      "t_bool": {
        "encoding": "inplace",
        "label": "bool",
        "numberOfBytes": "1"
      },
      "t_mapping(t_address,t_bool)": {
        "encoding": "mapping",
        "key": "t_address",
        "label": "mapping(address => bool)",
        "numberOfBytes": "32",
        "value": "t_bool"
      },
      "t_mapping(t_address,t_mapping(t_address,t_bool))": {
        "encoding": "mapping",
        "key": "t_address",
        "label": "mapping(address => mapping(address => bool))",
        "numberOfBytes": "32",
        "value": "t_mapping(t_address,t_bool)"
      },
      "t_mapping(t_address,t_uint256)": {
        "encoding": "mapping",
        "key": "t_address",
        "label": "mapping(address => uint256)",
        "numberOfBytes": "32",
        "value": "t_uint256"
      },
      "t_mapping(t_uint256,t_address)": {
        "encoding": "mapping",
        "key": "t_uint256",
        "label": "mapping(uint256 => address)",
        "numberOfBytes": "32",
        "value": "t_address"
      },
      "t_mapping(t_uint256,t_string_storage)": {
        "encoding": "mapping",
        "key": "t_uint256",
        "label": "mapping(uint256 => string)",
        "numberOfBytes": "32",
        "value": "t_string_storage"
      },
      "t_string_storage": {
        "encoding": "bytes",
        "label": "string",
        "numberOfBytes": "32"
      },
      "t_struct(Counter)2278_storage": {
        "encoding": "inplace",
        "label": "struct Counters.Counter",
        "members": [
          {
            "astId": 2277,
            "contract": "contracts/HarvadAcedmics.sol:HarvadAcedmics",
            "label": "_value",
            "offset": 0,
            "slot": "0",
            "type": "t_uint256"
          }
        ],
        "numberOfBytes": "32"
      },
      "t_uint256": {
        "encoding": "inplace",
        "label": "uint256",
        "numberOfBytes": "32"
      }
    }
  }
}