{
  "address": "0x34c81c0B16D7BD97384663dc21D5903EE03a80D2",
  "abi": [
    {
      "inputs": [],
      "name": "getNotice",
      "outputs": [
        {
          "internalType": "string",
          "name": "",
          "type": "string"
        }
      ],
      "stateMutability": "view",
      "type": "function"
    },
    {
      "inputs": [
        {
          "internalType": "string",
          "name": "_notice",
          "type": "string"
        }
      ],
      "name": "getUserByNotice",
      "outputs": [
        {
          "internalType": "address",
          "name": "",
          "type": "address"
        }
      ],
      "stateMutability": "view",
      "type": "function"
    },
    {
      "inputs": [
        {
          "internalType": "string",
          "name": "_notice",
          "type": "string"
        }
      ],
      "name": "setNotice",
      "outputs": [],
      "stateMutability": "nonpayable",
      "type": "function"
    }
  ],
  "transactionHash": "0x7f9e0732e3555dbbf87792559f0f0d3d8b92b5a7d77a4805d0b6f8d5cdabb036",
  "args": [],
  "numDeployments": 1,
  "solcInputHash": "f7327862e2fe9da5a32f544ac345f67a",
  "bytecode": "0x608060405234801561001057600080fd5b5061080b806100206000396000f3fe608060405234801561001057600080fd5b50600436106100415760003560e01c80633cf572a7146100465780635ce995ba14610062578063a134890614610080575b600080fd5b610060600480360381019061005b9190610354565b6100b0565b005b61006a610120565b604051610077919061041c565b60405180910390f35b61009a60048036038101906100959190610354565b6101b2565b6040516100a7919061047f565b60405180910390f35b80600090816100bf91906106b0565b50336001826040516100d191906107be565b908152602001604051809103902060006101000a81548173ffffffffffffffffffffffffffffffffffffffff021916908373ffffffffffffffffffffffffffffffffffffffff16021790555050565b60606000805461012f906104c9565b80601f016020809104026020016040519081016040528092919081815260200182805461015b906104c9565b80156101a85780601f1061017d576101008083540402835291602001916101a8565b820191906000526020600020905b81548152906001019060200180831161018b57829003601f168201915b5050505050905090565b60006001826040516101c491906107be565b908152602001604051809103902060009054906101000a900473ffffffffffffffffffffffffffffffffffffffff169050919050565b6000604051905090565b600080fd5b600080fd5b600080fd5b600080fd5b6000601f19601f8301169050919050565b7f4e487b7100000000000000000000000000000000000000000000000000000000600052604160045260246000fd5b61026182610218565b810181811067ffffffffffffffff821117156102805761027f610229565b5b80604052505050565b60006102936101fa565b905061029f8282610258565b919050565b600067ffffffffffffffff8211156102bf576102be610229565b5b6102c882610218565b9050602081019050919050565b82818337600083830152505050565b60006102f76102f2846102a4565b610289565b90508281526020810184848401111561031357610312610213565b5b61031e8482856102d5565b509392505050565b600082601f83011261033b5761033a61020e565b5b813561034b8482602086016102e4565b91505092915050565b60006020828403121561036a57610369610204565b5b600082013567ffffffffffffffff81111561038857610387610209565b5b61039484828501610326565b91505092915050565b600081519050919050565b600082825260208201905092915050565b60005b838110156103d75780820151818401526020810190506103bc565b60008484015250505050565b60006103ee8261039d565b6103f881856103a8565b93506104088185602086016103b9565b61041181610218565b840191505092915050565b6000602082019050818103600083015261043681846103e3565b905092915050565b600073ffffffffffffffffffffffffffffffffffffffff82169050919050565b60006104698261043e565b9050919050565b6104798161045e565b82525050565b60006020820190506104946000830184610470565b92915050565b7f4e487b7100000000000000000000000000000000000000000000000000000000600052602260045260246000fd5b600060028204905060018216806104e157607f821691505b6020821081036104f4576104f361049a565b5b50919050565b60008190508160005260206000209050919050565b60006020601f8301049050919050565b600082821b905092915050565b60006008830261055c7fffffffffffffffffffffffffffffffffffffffffffffffffffffffffffffffff8261051f565b610566868361051f565b95508019841693508086168417925050509392505050565b6000819050919050565b6000819050919050565b60006105ad6105a86105a38461057e565b610588565b61057e565b9050919050565b6000819050919050565b6105c783610592565b6105db6105d3826105b4565b84845461052c565b825550505050565b600090565b6105f06105e3565b6105fb8184846105be565b505050565b5b8181101561061f576106146000826105e8565b600181019050610601565b5050565b601f82111561066457610635816104fa565b61063e8461050f565b8101602085101561064d578190505b6106616106598561050f565b830182610600565b50505b505050565b600082821c905092915050565b600061068760001984600802610669565b1980831691505092915050565b60006106a08383610676565b9150826002028217905092915050565b6106b98261039d565b67ffffffffffffffff8111156106d2576106d1610229565b5b6106dc82546104c9565b6106e7828285610623565b600060209050601f83116001811461071a5760008415610708578287015190505b6107128582610694565b86555061077a565b601f198416610728866104fa565b60005b828110156107505784890151825560018201915060208501945060208101905061072b565b8683101561076d5784890151610769601f891682610676565b8355505b6001600288020188555050505b505050505050565b600081905092915050565b60006107988261039d565b6107a28185610782565b93506107b28185602086016103b9565b80840191505092915050565b60006107ca828461078d565b91508190509291505056fea2646970667358221220dc639ce4f086aa369de5a3c6ab3ca893115f98468491816924ffe322fae5c86364736f6c63430008110033",
  "devdoc": {
    "kind": "dev",
    "methods": {},
    "version": 1
  },
  "userdoc": {
    "kind": "user",
    "methods": {},
    "version": 1
  },
  "storageLayout": {
    "storage": [
      {
        "astId": 3,
        "contract": "contracts/NoticeBoard.sol:NoticeBoard",
        "label": "notice",
        "offset": 0,
        "slot": "0",
        "type": "t_string_storage"
      },
      {
        "astId": 7,
        "contract": "contracts/NoticeBoard.sol:NoticeBoard",
        "label": "noticeBy",
        "offset": 0,
        "slot": "1",
        "type": "t_mapping(t_string_memory_ptr,t_address)"
      }
    ],
    "types": {
      "t_address": {
        "encoding": "inplace",
        "label": "address",
        "numberOfBytes": "20"
      },
      "t_mapping(t_string_memory_ptr,t_address)": {
        "encoding": "mapping",
        "key": "t_string_memory_ptr",
        "label": "mapping(string => address)",
        "numberOfBytes": "32",
        "value": "t_address"
      },
      "t_string_memory_ptr": {
        "encoding": "bytes",
        "label": "string",
        "numberOfBytes": "32"
      },
      "t_string_storage": {
        "encoding": "bytes",
        "label": "string",
        "numberOfBytes": "32"
      }
    }
  }
}